S0130000466972655F53797374656D2E73726563A7
S11300000C942A000C9447000C9447000C9447006D
S11300100C9447000C9447000C9447000C94470040
S11300200C9447000C9447000C9447000C94470030
S11300300C9447000C9447000C9447000C94470020
S11300400C9447000C9447000C9447000C94470010
S11300500C94470011241FBECFE5D8E0DEBFCDBF0E
S113006010E0A0E6B0E0E6E6FDE002C005900D92E7
S1130070A43EB107D9F720E0A4EEB0E001C01D9280
S1130080A83EB207E1F70E948C040C94B1060C94CC
S113009000000F931F93CF93DF936AE070E00E94F8
S11300A04D068B01EC0167E081E00E9448048091D9
S11300B06100853519F487E790E002C08EE790E08F
S11300C00E94350488EA90E00E94350461E082E0F1
S11300D00E94480483E890E00E943504B80180E05F
S11300E090E00E94B1038EE20E94AF03BE0180E063
S11300F090E00E94B10388EA90E00E9435046BE02E
S113010082E00E94480488EA90E00E9435048091CD
S113011061008535A9F480E00E944A0281E00E94D2
S11301204A0260E080E00E94600460E081E00E9496
S1130130600480E0DF91CF911F910F910C946C04C7
S1130140DF91CF911F910F910895EF92FF921F932A
S1130150CF93DF93CDB7DEB72A970FB6F894DEBFFF
S11301600FBECDBF7C01162F85E0E2E7F0E0DE0193
S1130170169601900D928A95E1F70E94560462E06A
S113018081E00E94480486E890E00E94350467E01C
S113019082E00E94480419838AE20E94AF0311E0BE
S11301A00E94890290ED980F9A3058F4E1E0F0E053
S11301B0EC0FFD1FE10FF11D80838AE20E94AF0363
S11301C01F5F153069F7FE013696DE011196CE01E8
S11301D00B9631912D91321305C0E817F907C9F731
S11301E015E501C01AEA0E94560466E081E00E9407
S11301F04804153529F51093610085E990E00E94C3
S113020035042FEF89E698E1215080409040E1F7D2
S113021000C0000061E081E00E9448048DE990E0A4
S11302200E943504C7012A960FB6F894DEBF0FBEAC
S1130230CDBFDF91CF911F91FF90EF900C944900B7
S11302408AEA809361008FEA90E00E9435042FEFE0
S113025089E698E1215080409040E1F700C0000019
S113026061E081E00E9448048DE990E02A960FB68F
S1130270F894DEBF0FBECDBFDF91CF911F91FF90E9
S1130280EF900C943504EF92FF920F931F93CF934A
S1130290DF93EB016AE070E00E944D067B018C0164
S11302A067E081E00E94480480916100853519F47B
S11302B085EB90E002C08EE790E00E94350488EA66
S11302C090E00E94350461E082E00E94480483E8E3
S11302D090E00E943504B70180E090E00E94B103F1
S11302E08EE20E94AF03B80180E090E00E94B10367
S11302F08CEA90E00E9435046CE082E00E9448049D
S11303008AEB90E00E943504BE0180E090E00E94F8
S1130310B10388EA90E00E9435048091610085353C
S1130320B9F480E00E94640281E00E944A0261E024
S113033080E00E94600460E081E00E94600480E04C
S1130340DF91CF911F910F91FF90EF900C946C046B
S1130350DF91CF911F910F91FF90EF9008950F932C
S11303601F93CF93DF938C01EB018AEA80936100A2
S113037067E081E00E9448048EE790E00E94350423
S113038088EA90E00E94350461E082E00E9448041B
S113039083E890E00E943504C8016AE070E00E949E
S11303A04D068C0180E090E00E94B1038EE20E9431
S11303B0AF03B80180E090E00E94B1038BEA90E0C3
S11303C00E9435046CE082E00E9448048AEB90E0CD
S11303D00E943504BE0180E090E00E94B10388EAE7
S11303E090E00E94350480E00E944A0281E00E946D
S11303F0640260E080E00E94600461E081E00E94A9
S1130400600481E0DF91CF911F910F910C946C04F3
S113041008950E9477049093E7008093E6000E9479
S11304207A049093E5008093E4000E948902843763
S113043039F0682F8091E6009091E7000E94A500B2
S11304406091E4007091E5008091E6009091E700EE
S1130450693522E0720710F00C94AF01853F31E05A
S1130460930740F4209160002A3A59F4823C21E039
S1130470920710F02AEA01C025E5209360000C944D
S11304804301843F31E0930721F0253511F40C94A6
S11304904900089581110BC060E08091BE000E9464
S11304A0B10560E08091BF000E94B10508958130DC
S11304B051F460E08091C0000E94B10560E0809139
S11304C0C1000C94B105089581110BC061E08091C5
S11304D0BE000E94B10560E08091BF000E94B1059A
S11304E00895813051F461E08091C0000E94B1050B
S11304F060E08091C1000C94B1050895CF93CCE0E5
S113050061E08C2F0E94B105CF5FC031C9F7CF9154
S11305100895DF92EF92FF920F931F93CF93DF938F
S113052092E6E92E90E0F92ECCE0D4E760E08C2F3F
S11305300E94B10500E010E08AE1D82ED00E8D2D86
S11305400E943006811115C0F701E00FF11FD08120
S11305508FE19EE40197F1F700C000008D2D0E9409
S113056030068823D9F38FE19EE40197F1F700C0A8
S113057000000F5F1F4F04301105F1F661E08C2F6E
S11305800E94B105CF5F94E0E90EF11CC03171F611
S11305908D2FDF91CF911F910F91FF90EF90DF90FE
S11305A00895CF93C82F60E081E00E94B1056C2FBD
S11305B0661F6627661F86E00E94B105C6FB662794
S11305C060F985E00E94B105C5FB662760F984E007
S11305D00E94B105C4FB662760F983E00E94B1055F
S11305E061E082E00E94B1058FEC97E00197F1F79A
S11305F000C0000060E082E00E94B1058FEC97E04B
S11306000197F1F700C00000C3FB662760F986E09C
S11306100E94B105C2FB662760F985E00E94B1051E
S1130620C1FB662760F984E00E94B1056C2F6170FC
S113063083E00E94B10561E082E00E94B1058FEC85
S113064097E00197F1F700C0000060E082E00E94AB
S1130650B1058FEC97E00197F1F700C00000CF914E
S11306600895CF93C82F61E081E00E94B1056C2FFB
S1130670661F6627661F86E00E94B105C6FB6627D3
S113068060F985E00E94B105C5FB662760F984E046
S11306900E94B105C4FB662760F983E00E94B1059E
S11306A061E082E00E94B1058FEC97E00197F1F7D9
S11306B000C0000060E082E00E94B1058FEC97E08A
S11306C00197F1F700C00000C3FB662760F986E0DC
S11306D00E94B105C2FB662760F985E00E94B1055E
S11306E0C1FB662760F984E00E94B1056C2F61703C
S11306F083E00E94B10561E082E00E94B1058FECC5
S113070097E00197F1F700C0000060E082E00E94EA
S1130710B1058FEC97E00197F1F700C00000CF918D
S113072008952FE788E391E0215080409040E1F75D
S113073000C0000082E00E94D10288E20E94D1023F
S11307408CE00E94D10281E00E94D1028FEC97E0FC
S11307500197F1F700C0000086E00C94D1020C94DC
S113076031034F925F926F927F92AF92BF92CF927A
S1130770DF92EF92FF921F93CF93DF93CDB7DEB753
S11307802A970FB6F894DEBF0FBECDBF6B017C0174
S11307906115710581059105B1F480E32A960FB6C0
S11307A0F894DEBF0FBECDBFDF91CF911F91FF90B4
S11307B0EF90DF90CF90BF90AF907F906F905F905D
S11307C04F900C94310397FF0BC0F094E094D094B5
S11307D0C094C11CD11CE11CF11C8DE20E943103A8
S11307E010E09AE0492E512C612C712CAA24A39478
S11307F0B12CAC0EBD1EA10EB11CC701B601A301E4
S113080092010E948306605DF501608381E0810F9F
S113081069017A01C114D104E104F10411F0182F23
S1130820E5CFF12EF7FC0DC0E1E0F0E0EC0FFD1F89
S1130830EF0DF11DF7FCFA9580810E943103FA94C3
S1130840F1CF2A960FB6F894DEBF0FBECDBFDF916D
S1130850CF911F91FF90EF90DF90CF90BF90AF901A
S11308607F906F905F904F9008950F931F93CF9355
S11308708C01C0E0F801EC0FF11D8081882321F088
S11308800E943103CF5FF6CFCF911F910F9108954E
S1130890813021F48FEF860F806805C0823029F4FF
S11308A08FEF860F806C0C94D102089581E00E9432
S11308B0D1028FEC97E00197F1F700C00000089592
S11308C0613011F0611107C0E82FF0E0EE51FF4FE5
S11308D080810C94B1050895813011F461E003C066
S11308E0811104C060E086E10C94B105089580E0B4
S11308F00C94C20487E00E94B0049C01A8EEB3E00B
S11309000E94A20629E933E040E050E00E9461061B
S1130910C901855A9F4F08950E94D3040E947E0204
S11309200E94910366E081E00E949B040E940802F9
S11309300E940902FDCF813041F028F0823039F461
S11309403E9A3F9A04C03E9801C03E9A3F9886B1B1
S1130950887F86B986B16770682B66B9379A08951F
S113096097B1907E97B997B1892B87B9369A8FEC56
S113097097E00197F1F700C000003699FECF84B1EB
S113098095B108950E94B0049C01A8E8B3E10E94C7
S1130990A206DC01CB012AE0B695A7959795879529
S11309A02A95D1F70895E2ECF0E040E081E090E090
S11309B05191342F369536953695242F2770513022
S11309C009F443C020F0523009F482C0C5C032306B
S11309D001F1333061F1313071F05AB3BC0102C01E
S11309E0660F771F2A95E2F79B01352F322B3ABB0E
S11309F03BB320953DC057B3BC0102C0660F771FBF
S1130A002A95E2F79B01352F322B37BB38B320955B
S1130A103EC054B3BC0102C0660F771F2A95E2F7AB
S1130A209B01352F322B34BB35B320953FC051B3D6
S1130A30BC0102C0660F771F2A95E2F79B01352F90
S1130A40322B31BB32B3209541C0323011F13330F7
S1130A5081F1313079F05AB3BC0102C0660F771FBF
S1130A602A95E2F79B012095352F32233ABB3BB3FD
S1130A70232342C057B3BC0102C0660F771F2A95D7
S1130A80E2F79B012095352F322337BB38B323235C
S1130A9043C054B3BC0102C0660F771F2A95E2F726
S1130AA09B012095352F322334BB35B3232325BB3B
S1130AB053C051B3BC0102C0660F771F2A95E2F7F9
S1130AC09B012095352F322331BB32B3232343C0FE
S1130AD0323021F1333089F1313081F05AB3BC0125
S1130AE002C0660F771F2A95E2F79B01362F3095D7
S1130AF035233ABB3BB3232B2BBB2EC057B3BC01CE
S1130B0002C0660F771F2A95E2F79B01362F3095B6
S1130B10352337BB38B3232B28BB1EC054B3BC01C9
S1130B2002C0660F771F2A95E2F79B01362F309596
S1130B30352334BB35B3232BBACF51B3BC0102C028
S1130B40660F771F2A95E2F79B01362F30953523E0
S1130B5031BB32B3232B22BB4F5F403209F028CF85
S1130B600895982F96959695969587706130C1F55E
S1130B70913091F028F09230D9F0933029F1089512
S1130B804BB321E030E0B90102C0660F771F8A95AC
S1130B90E2F7CB01842B38C048B321E030E0B9013F
S1130BA002C0660F771F8A95E2F7CB01842B3AC007
S1130BB045B321E030E0B90102C0660F771F8A9582
S1130BC0E2F7CB01842B3CC042B321E030E0B90111
S1130BD002C0660F771F8A95E2F7CB01842B3EC0D3
S1130BE09130A1F028F09230F9F0933059F1089542
S1130BF04BB321E030E0B90102C0660F771F8A953C
S1130C00E2F7CB01809584238BBB089548B321E0A0
S1130C1030E0B90102C0660F771F8A95E2F7CB0175
S1130C208095842388BB089545B321E030E0B90161
S1130C3002C0660F771F8A95E2F7CB018095842363
S1130C4085BB089542B321E030E0B90102C0660FCC
S1130C50771F8A95E2F7CB018095842382BB0895A0
S1130C60282F2770869586958695813049F030F037
S1130C70823041F0833079F480B305C089B303C076
S1130C8086B301C083B390E002C0959587952A95F9
S1130C90E2F78170089580E00895AA1BBB1B51E11F
S1130CA007C0AA1FBB1FA617B70710F0A61BB70BD8
S1130CB0881F991F5A95A9F780959095BC01CD017D
S1130CC00895A1E21A2EAA1BBB1BFD010DC0AA1F89
S1130CD0BB1FEE1FFF1FA217B307E407F50720F0A1
S1130CE0A21BB30BE40BF50B661F771F881F991F1C
S1130CF01A9469F760957095809590959B01AC0165
S1130D00BD01CF010895052E97FB1EF400940E94A7
S1130D109A0657FD07D00E94610607FC03D04EF4E3
S1130D200C949A0650954095309521953F4F4F4F1E
S1130D305F4F089590958095709561957F4F8F4F83
S1130D409F4F0895A29FB001B39FC001A39F700D50
S1130D50811D1124911DB29F700D811D1124911DBF
S1090D600895F894FFCF92
S1130D6655553738392F3435362A3132332D6330D9
S1130D763D2B31323334354E4F524D414C004649AA
S1130D86524500543A00454E54455220504153535F
S1130D965741524400434F525245435400202020A9
S1130DA62020202020202020202020202020005722
S1130DB6524F4E47004845415400534D3A001011D6
S1130DC612130100000000000001000002000000F0
S1130DD60000000000000000000000000202020201
S1070DE600001415DC
S9030000FC
